S00E00006C6172736F6E2E7372656387
S113000012C017C016C015C014C013C012C011C04E
S113001010C00FC00EC00DC00CC00BC00AC009C078
S113002008C007C006C011241FBECFEDCDBF02D04B
S113003002C2E6CF2F923F924F925F926F927F92CD
S11300408F929F92AF92BF92CF92DF92EF92FF92E4
S11300500F931F93DF93CF93CDB7DEB7AB970FB654
S1130060F894DEBF0FBECDBF91E0998384E08A830C
S113007082E08B839C8384B7877F84BF88E181BDC2
S113008011BC1ABA8FE087BB8EE781BB83E08BBBC0
S113009080E188BB12BA10E00EEF1F8E1E8E9D8F7A
S11300A022E02C8F61E0C62ED12C22243324AE0111
S11300B0465F5F4F5FA34EA3BE016D5E7F4F7DA37E
S11300C06CA3CE01099699A788A7C89BFECF0F5FA2
S11300D09E8D901718F001E00E8FCEC0B49B06C021
S11300E0E1E0ED8F51E0C52ED12C24C00894C11C51
S11300F0D11CF9ECCF16D10460F0232829F0CC24CC
S1130100DD242224332405C0CC24DD2441E0242E24
S1130110312CAD8CAA2071F02C8D2F5F2C8F822F67
S11301208250823028F031E03E8F1D8E3C8F02C019
S11301301E8E1D8E1F5F103831F44F8D4423C1F085
S113014010E01F8E03C05F8D5523A9F4812F90E02A
S11301500F9634E0959587953A95E1F7982F115FBE
S11301608295807F712F781B1F503FE0371B15C08D
S113017010E061E06F8F8FE790E0811B910924E02C
S1130180959587952A95E1F7982F312F3195315818
S11301908295807F381B7FE0731BFE013A96119293
S11301A0ACA0BDA0EA15FB05D1F7DE011596592FC9
S11301B05E5F492F4250FD0108E0E02EF12CBF8C18
S11301C0BB2011F4252F01C0242F29305CF0822F8D
S11301D0992787FD90955701A81AB90AC501880F78
S11301E0991F280F27FD2195219351504F5F8EA110
S11301F09FA1E817F90719F7AE014F5F5F4FEC9124
S1130200EE2EFF24E7FCF094FA012191AF018AE07D
S1130210A82EB12CAC0EBD1EEA0CFB1C872F622F3E
S113022001D1F7019081980F90831196EC91119769
S1130230FF27E7FDF095EA0DFB1D832F622FF2D017
S11302409081980F90831196A8A4B9A4AA15BB0510
S1130250B1F6BA84BB8E2B852A8F3C85398F4D85A8
S1130260488F5E855F8B6F856E8B78897D8B8989DE
S11302708C8B9A899B8B00E02114310409F180E076
S1130280FB8DEF2FF0E0F9A3E8A3BA8CAB2CBB24D1
S1130290BBA2AAA2298D422E5524388D632E772421
S11302A04F89842E99245E89A52EBB246D89E62E60
S11302B0FF247C89A72FB0E09B89E92FF0E0A6C03A
S11302C020E0EB8D4E2E5524FA8D6F2E7724A98CC9
S11302D08A2C9924388DA32EBB244F89E42EFF2425
S11302E05E89A52FB0E06D89E62FF0E08C89682F38
S11302F070E09B89492F50E0822F992787FD9095C4
S1130300841595051CF434E032BB01C012BA86157D
S113031097051CF438E032BB01C012BA8815990560
S11303201CF430E132BB01C012BA8A159B051CF4DF
S113033030E232BB01C012BA8E159F051CF430E4C2
S113034032BB01C012BA8A179B0714F431E101C011
S113035030E138BB12BA8E179F0714F432E101C0A2
S113036030E138BB8617970714F434E101C030E15B
S113037038BB841795071CF488E188BB02C090E160
S113038098BB2F5F3C8D333009F42F5F80E188BB2D
S11303902C330CF4B1CF99CE8AA59BA5840F951F5D
S11303A068A179A18617970714F020E001C024E022
S11303B06AA17BA1861797070CF42860841595051C
S11303C00CF42061861597050CF4206288159905B4
S11303D00CF4206422BB8A159B0514F020E101C0B3
S11303E021E18E159F050CF422608A179B070CF4FB
S11303F024608E179F070CF4286028BB3F5F4F5F73
S11304005F4F7C8D733051F4832F8F5F382F40E022
S113041050E0992787FD90959BA78AA73C330CF45D
S1130420BBCF53CE002480FD060E660F11F08695D7
S10D0430D1F7802D0895F894FFCF52
S9030000FC
